{
  "_format": "hh-sol-artifact-1",
  "contractName": "AssetTracker",
  "sourceName": "contracts/AssetTracker.sol",
  "abi": [
    {
      "anonymous": false,
      "inputs": [
        {
          "indexed": false,
          "internalType": "address",
          "name": "account",
          "type": "address"
        },
        {
          "indexed": false,
          "internalType": "string",
          "name": "uuid",
          "type": "string"
        },
        {
          "indexed": false,
          "internalType": "uint256",
          "name": "cost",
          "type": "uint256"
        },
        {
          "indexed": false,
          "internalType": "uint256",
          "name": "quantity",
          "type": "uint256"
        },
        {
          "indexed": false,
          "internalType": "string",
          "name": "manufacturer",
          "type": "string"
        },
        {
          "indexed": false,
          "internalType": "string",
          "name": "customer",
          "type": "string"
        },
        {
          "indexed": false,
          "internalType": "string",
          "name": "addressFrom",
          "type": "string"
        },
        {
          "indexed": false,
          "internalType": "string",
          "name": "addressTo",
          "type": "string"
        }
      ],
      "name": "AssetCreate",
      "type": "event"
    },
    {
      "anonymous": false,
      "inputs": [
        {
          "indexed": false,
          "internalType": "address",
          "name": "from",
          "type": "address"
        },
        {
          "indexed": false,
          "internalType": "address",
          "name": "to",
          "type": "address"
        },
        {
          "indexed": false,
          "internalType": "string",
          "name": "uuid",
          "type": "string"
        }
      ],
      "name": "AssetTransfer",
      "type": "event"
    },
    {
      "anonymous": false,
      "inputs": [
        {
          "indexed": false,
          "internalType": "address",
          "name": "account",
          "type": "address"
        },
        {
          "indexed": false,
          "internalType": "string",
          "name": "uuid",
          "type": "string"
        },
        {
          "indexed": false,
          "internalType": "string",
          "name": "message",
          "type": "string"
        }
      ],
      "name": "RejectCreate",
      "type": "event"
    },
    {
      "anonymous": false,
      "inputs": [
        {
          "indexed": false,
          "internalType": "string",
          "name": "name",
          "type": "string"
        },
        {
          "indexed": false,
          "internalType": "string",
          "name": "add",
          "type": "string"
        },
        {
          "indexed": false,
          "internalType": "string",
          "name": "email",
          "type": "string"
        },
        {
          "indexed": false,
          "internalType": "string",
          "name": "phone",
          "type": "string"
        }
      ],
      "name": "RejectDistributor",
      "type": "event"
    },
    {
      "anonymous": false,
      "inputs": [
        {
          "indexed": false,
          "internalType": "address",
          "name": "from",
          "type": "address"
        },
        {
          "indexed": false,
          "internalType": "address",
          "name": "to",
          "type": "address"
        },
        {
          "indexed": false,
          "internalType": "string",
          "name": "uuid",
          "type": "string"
        },
        {
          "indexed": false,
          "internalType": "string",
          "name": "message",
          "type": "string"
        }
      ],
      "name": "RejectTransfer",
      "type": "event"
    },
    {
      "inputs": [
        {
          "internalType": "string",
          "name": "uuid",
          "type": "string"
        }
      ],
      "name": "Arrived",
      "outputs": [],
      "stateMutability": "nonpayable",
      "type": "function"
    },
    {
      "inputs": [
        {
          "internalType": "uint256",
          "name": "_amount",
          "type": "uint256"
        }
      ],
      "name": "balance",
      "outputs": [
        {
          "internalType": "bool",
          "name": "",
          "type": "bool"
        }
      ],
      "stateMutability": "pure",
      "type": "function"
    },
    {
      "inputs": [
        {
          "internalType": "string",
          "name": "name",
          "type": "string"
        },
        {
          "internalType": "string",
          "name": "description",
          "type": "string"
        },
        {
          "internalType": "string",
          "name": "uuid",
          "type": "string"
        },
        {
          "internalType": "uint256",
          "name": "cost",
          "type": "uint256"
        },
        {
          "internalType": "uint256",
          "name": "quantity",
          "type": "uint256"
        },
        {
          "internalType": "string",
          "name": "manufacturer",
          "type": "string"
        },
        {
          "internalType": "string",
          "name": "customer",
          "type": "string"
        },
        {
          "internalType": "string",
          "name": "addressFrom",
          "type": "string"
        },
        {
          "internalType": "string",
          "name": "addressTo",
          "type": "string"
        }
      ],
      "name": "createAsset",
      "outputs": [],
      "stateMutability": "nonpayable",
      "type": "function"
    },
    {
      "inputs": [],
      "name": "distributorCount",
      "outputs": [
        {
          "internalType": "uint256",
          "name": "",
          "type": "uint256"
        }
      ],
      "stateMutability": "view",
      "type": "function"
    },
    {
      "inputs": [],
      "name": "getAlldistributors",
      "outputs": [
        {
          "components": [
            {
              "internalType": "uint256",
              "name": "id",
              "type": "uint256"
            },
            {
              "internalType": "string",
              "name": "name",
              "type": "string"
            },
            {
              "internalType": "string",
              "name": "add",
              "type": "string"
            },
            {
              "internalType": "string",
              "name": "email",
              "type": "string"
            },
            {
              "internalType": "string",
              "name": "phone",
              "type": "string"
            }
          ],
          "internalType": "struct AssetTracker.Person[]",
          "name": "",
          "type": "tuple[]"
        }
      ],
      "stateMutability": "view",
      "type": "function"
    },
    {
      "inputs": [
        {
          "internalType": "string",
          "name": "uuid",
          "type": "string"
        }
      ],
      "name": "getAssetByUUID",
      "outputs": [
        {
          "internalType": "string",
          "name": "",
          "type": "string"
        },
        {
          "internalType": "string",
          "name": "",
          "type": "string"
        },
        {
          "internalType": "string",
          "name": "",
          "type": "string"
        },
        {
          "internalType": "string",
          "name": "",
          "type": "string"
        },
        {
          "internalType": "string",
          "name": "",
          "type": "string"
        },
        {
          "internalType": "string",
          "name": "",
          "type": "string"
        },
        {
          "internalType": "bool",
          "name": "arrived",
          "type": "bool"
        }
      ],
      "stateMutability": "view",
      "type": "function"
    },
    {
      "inputs": [
        {
          "internalType": "uint256",
          "name": "id",
          "type": "uint256"
        }
      ],
      "name": "getDistributorbyId",
      "outputs": [
        {
          "internalType": "string",
          "name": "",
          "type": "string"
        },
        {
          "internalType": "string",
          "name": "",
          "type": "string"
        },
        {
          "internalType": "string",
          "name": "",
          "type": "string"
        },
        {
          "internalType": "string",
          "name": "",
          "type": "string"
        }
      ],
      "stateMutability": "view",
      "type": "function"
    },
    {
      "inputs": [
        {
          "internalType": "string",
          "name": "uuid",
          "type": "string"
        }
      ],
      "name": "getItemByUUID",
      "outputs": [
        {
          "internalType": "uint256",
          "name": "cost",
          "type": "uint256"
        },
        {
          "internalType": "uint256",
          "name": "quantity",
          "type": "uint256"
        }
      ],
      "stateMutability": "view",
      "type": "function"
    },
    {
      "inputs": [
        {
          "internalType": "string",
          "name": "name",
          "type": "string"
        },
        {
          "internalType": "string",
          "name": "add",
          "type": "string"
        },
        {
          "internalType": "string",
          "name": "email",
          "type": "string"
        },
        {
          "internalType": "string",
          "name": "phone",
          "type": "string"
        }
      ],
      "name": "insertDistributor",
      "outputs": [
        {
          "internalType": "bool",
          "name": "",
          "type": "bool"
        }
      ],
      "stateMutability": "nonpayable",
      "type": "function"
    },
    {
      "inputs": [
        {
          "internalType": "address",
          "name": "owner",
          "type": "address"
        },
        {
          "internalType": "string",
          "name": "uuid",
          "type": "string"
        }
      ],
      "name": "isOwnerOf",
      "outputs": [
        {
          "internalType": "bool",
          "name": "",
          "type": "bool"
        }
      ],
      "stateMutability": "view",
      "type": "function"
    },
    {
      "inputs": [
        {
          "internalType": "address",
          "name": "to",
          "type": "address"
        },
        {
          "internalType": "string",
          "name": "uuid",
          "type": "string"
        }
      ],
      "name": "transferAsset",
      "outputs": [],
      "stateMutability": "nonpayable",
      "type": "function"
    }
  ],
  "bytecode": "0x6080604052600060015534801561001557600080fd5b50612472806100256000396000f3fe608060405234801561001057600080fd5b50600436106100a95760003560e01c806352470f131161007157806352470f131461017e57806355fb7d7b1461019a57806359ab5277146101cb57806375249329146101e7578063c524635314610217578063fdd0e4d714610235576100a9565b806329f1d0a7146100ae578063394117be146100de5780633ac140e8146101145780633e1b2e901461013257806347bb89f01461014e575b600080fd5b6100c860048036038101906100c39190611627565b610268565b6040516100d59190611e83565b60405180910390f35b6100f860048036038101906100f3919061167b565b6102ec565b60405161010b9796959493929190611eff565b60405180910390f35b61011c61074d565b6040516101299190611fd8565b60405180910390f35b61014c6004803603810190610147919061167b565b610753565b005b610168600480360381019061016391906118ed565b610790565b6040516101759190611e83565b60405180910390f35b6101986004803603810190610193919061177f565b6107de565b005b6101b460048036038101906101af919061167b565b610a86565b6040516101c2929190611ff3565b60405180910390f35b6101e560048036038101906101e09190611627565b610ad6565b005b61020160048036038101906101fc91906116bc565b610d1e565b60405161020e9190611e83565b60405180910390f35b61021f610ec7565b60405161022c9190611e61565b60405180910390f35b61024f600480360381019061024a91906118ed565b61122a565b60405161025f9493929190611e9e565b60405180910390f35b6000600360008473ffffffffffffffffffffffffffffffffffffffff1673ffffffffffffffffffffffffffffffffffffffff168152602001908152602001600020826040516102b79190611c5a565b908152602001604051809103902060009054906101000a900460ff16156102e157600190506102e6565b600090505b92915050565b60608060608060608060006002886040516103079190611c5a565b90815260200160405180910390206000016002896040516103289190611c5a565b908152602001604051809103902060010160028a6040516103499190611c5a565b908152602001604051809103902060040160028b60405161036a9190611c5a565b908152602001604051809103902060050160028c60405161038b9190611c5a565b908152602001604051809103902060060160028d6040516103ac9190611c5a565b908152602001604051809103902060070160028e6040516103cd9190611c5a565b908152602001604051809103902060080160019054906101000a900460ff168680546103f890612182565b80601f016020809104026020016040519081016040528092919081815260200182805461042490612182565b80156104715780601f1061044657610100808354040283529160200191610471565b820191906000526020600020905b81548152906001019060200180831161045457829003601f168201915b5050505050965085805461048490612182565b80601f01602080910402602001604051908101604052809291908181526020018280546104b090612182565b80156104fd5780601f106104d2576101008083540402835291602001916104fd565b820191906000526020600020905b8154815290600101906020018083116104e057829003601f168201915b5050505050955084805461051090612182565b80601f016020809104026020016040519081016040528092919081815260200182805461053c90612182565b80156105895780601f1061055e57610100808354040283529160200191610589565b820191906000526020600020905b81548152906001019060200180831161056c57829003601f168201915b5050505050945083805461059c90612182565b80601f01602080910402602001604051908101604052809291908181526020018280546105c890612182565b80156106155780601f106105ea57610100808354040283529160200191610615565b820191906000526020600020905b8154815290600101906020018083116105f857829003601f168201915b5050505050935082805461062890612182565b80601f016020809104026020016040519081016040528092919081815260200182805461065490612182565b80156106a15780601f10610676576101008083540402835291602001916106a1565b820191906000526020600020905b81548152906001019060200180831161068457829003601f168201915b505050505092508180546106b490612182565b80601f01602080910402602001604051908101604052809291908181526020018280546106e090612182565b801561072d5780601f106107025761010080835404028352916020019161072d565b820191906000526020600020905b81548152906001019060200180831161071057829003601f168201915b505050505091509650965096509650965096509650919395979092949650565b60015481565b60016002826040516107659190611c5a565b908152602001604051809103902060080160016101000a81548160ff02191690831515021790555050565b6000601482106107d5576040517f08c379a00000000000000000000000000000000000000000000000000000000081526004016107cc90611fb8565b60405180910390fd5b60019050919050565b6002876040516107ee9190611c5a565b908152602001604051809103902060080160009054906101000a900460ff1615610850577f8c162857a2babb214aa3eec53736fe29210ad6ec70bd43589c0d59c1c456308a3388604051610843929190611d7d565b60405180910390a1610a7b565b6040518061014001604052808a8152602001898152602001878152602001868152602001858152602001848152602001838152602001828152602001600115158152602001600015158152506002886040516108ac9190611c5a565b908152602001604051809103902060008201518160000190805190602001906108d69291906114c3565b5060208201518160010190805190602001906108f39291906114c3565b50604082015181600201556060820151816003015560808201518160040190805190602001906109249291906114c3565b5060a08201518160050190805190602001906109419291906114c3565b5060c082015181600601908051906020019061095e9291906114c3565b5060e082015181600701908051906020019061097b9291906114c3565b506101008201518160080160006101000a81548160ff0219169083151502179055506101208201518160080160016101000a81548160ff0219169083151502179055509050506001600360003373ffffffffffffffffffffffffffffffffffffffff1673ffffffffffffffffffffffffffffffffffffffff16815260200190815260200160002088604051610a109190611c5a565b908152602001604051809103902060006101000a81548160ff0219169083151502179055507ff1ba0415c174aabca76e73c7f924eaf6a2d0f06913765e2d6b5642b390628bf23388888888888888604051610a72989796959493929190611dc0565b60405180910390a15b505050505050505050565b600080600283604051610a999190611c5a565b908152602001604051809103902060020154600284604051610abb9190611c5a565b90815260200160405180910390206003015491509150915091565b600281604051610ae69190611c5a565b908152602001604051809103902060080160009054906101000a900460ff16610b49577ff59cb53e06c92120aafecb5228eb729bea3911f16055a2653662506be95c5b48338383604051610b3c93929190611d2c565b60405180910390a1610d1a565b600360003373ffffffffffffffffffffffffffffffffffffffff1673ffffffffffffffffffffffffffffffffffffffff16815260200190815260200160002081604051610b969190611c5a565b908152602001604051809103902060009054906101000a900460ff16610bf6577ff59cb53e06c92120aafecb5228eb729bea3911f16055a2653662506be95c5b48338383604051610be993929190611cdb565b60405180910390a1610d1a565b6000600360003373ffffffffffffffffffffffffffffffffffffffff1673ffffffffffffffffffffffffffffffffffffffff16815260200190815260200160002082604051610c459190611c5a565b908152602001604051809103902060006101000a81548160ff0219169083151502179055506001600360008473ffffffffffffffffffffffffffffffffffffffff1673ffffffffffffffffffffffffffffffffffffffff16815260200190815260200160002082604051610cb99190611c5a565b908152602001604051809103902060006101000a81548160ff0219169083151502179055507f09d981be3af6960f65605b806c5f197ed3533e0e1e9aa373180ec4517dc8039c338383604051610d1193929190611c9d565b60405180910390a15b5050565b600080600090505b600154811015610de457604051602001610d3f90611c88565b60405160208183030381529060405280519060200120600080838152602001908152602001600020600301604051602001610d7a9190611c71565b604051602081830303815290604052805190602001201415610dd1576040517f08c379a0000000000000000000000000000000000000000000000000000000008152600401610dc890611f98565b60405180910390fd5b8080610ddc906121e5565b915050610d26565b506040518060a001604052806001548152602001868152602001858152602001848152602001838152506000806001548152602001908152602001600020600082015181600001556020820151816001019080519060200190610e489291906114c3565b506040820151816002019080519060200190610e659291906114c3565b506060820151816003019080519060200190610e829291906114c3565b506080820151816004019080519060200190610e9f9291906114c3565b5090505060016000815480929190610eb6906121e5565b919050555060019050949350505050565b6060600060015467ffffffffffffffff811115610f0d577f4e487b7100000000000000000000000000000000000000000000000000000000600052604160045260246000fd5b604051908082528060200260200182016040528015610f4657816020015b610f33611549565b815260200190600190039081610f2b5790505b50905060005b6001548110156112225760008060008381526020019081526020016000209050806040518060a001604052908160008201548152602001600182018054610f9290612182565b80601f0160208091040260200160405190810160405280929190818152602001828054610fbe90612182565b801561100b5780601f10610fe05761010080835404028352916020019161100b565b820191906000526020600020905b815481529060010190602001808311610fee57829003601f168201915b5050505050815260200160028201805461102490612182565b80601f016020809104026020016040519081016040528092919081815260200182805461105090612182565b801561109d5780601f106110725761010080835404028352916020019161109d565b820191906000526020600020905b81548152906001019060200180831161108057829003601f168201915b505050505081526020016003820180546110b690612182565b80601f01602080910402602001604051908101604052809291908181526020018280546110e290612182565b801561112f5780601f106111045761010080835404028352916020019161112f565b820191906000526020600020905b81548152906001019060200180831161111257829003601f168201915b5050505050815260200160048201805461114890612182565b80601f016020809104026020016040519081016040528092919081815260200182805461117490612182565b80156111c15780601f10611196576101008083540402835291602001916111c1565b820191906000526020600020905b8154815290600101906020018083116111a457829003601f168201915b505050505081525050838381518110611203577f4e487b7100000000000000000000000000000000000000000000000000000000600052603260045260246000fd5b602002602001018190525050808061121a906121e5565b915050610f4c565b508091505090565b60608060608060008086815260200190815260200160002060010160008087815260200190815260200160002060020160008088815260200190815260200160002060030160008089815260200190815260200160002060040183805461129090612182565b80601f01602080910402602001604051908101604052809291908181526020018280546112bc90612182565b80156113095780601f106112de57610100808354040283529160200191611309565b820191906000526020600020905b8154815290600101906020018083116112ec57829003601f168201915b5050505050935082805461131c90612182565b80601f016020809104026020016040519081016040528092919081815260200182805461134890612182565b80156113955780601f1061136a57610100808354040283529160200191611395565b820191906000526020600020905b81548152906001019060200180831161137857829003601f168201915b505050505092508180546113a890612182565b80601f01602080910402602001604051908101604052809291908181526020018280546113d490612182565b80156114215780601f106113f657610100808354040283529160200191611421565b820191906000526020600020905b81548152906001019060200180831161140457829003601f168201915b5050505050915080805461143490612182565b80601f016020809104026020016040519081016040528092919081815260200182805461146090612182565b80156114ad5780601f10611482576101008083540402835291602001916114ad565b820191906000526020600020905b81548152906001019060200180831161149057829003601f168201915b5050505050905093509350935093509193509193565b8280546114cf90612182565b90600052602060002090601f0160209004810192826114f15760008555611538565b82601f1061150a57805160ff1916838001178555611538565b82800160010185558215611538579182015b8281111561153757825182559160200191906001019061151c565b5b5090506115459190611578565b5090565b6040518060a0016040528060008152602001606081526020016060815260200160608152602001606081525090565b5b80821115611591576000816000905550600101611579565b5090565b60006115a86115a384612041565b61201c565b9050828152602081018484840111156115c057600080fd5b6115cb848285612140565b509392505050565b6000813590506115e28161240e565b92915050565b600082601f8301126115f957600080fd5b8135611609848260208601611595565b91505092915050565b60008135905061162181612425565b92915050565b6000806040838503121561163a57600080fd5b6000611648858286016115d3565b925050602083013567ffffffffffffffff81111561166557600080fd5b611671858286016115e8565b9150509250929050565b60006020828403121561168d57600080fd5b600082013567ffffffffffffffff8111156116a757600080fd5b6116b3848285016115e8565b91505092915050565b600080600080608085870312156116d257600080fd5b600085013567ffffffffffffffff8111156116ec57600080fd5b6116f8878288016115e8565b945050602085013567ffffffffffffffff81111561171557600080fd5b611721878288016115e8565b935050604085013567ffffffffffffffff81111561173e57600080fd5b61174a878288016115e8565b925050606085013567ffffffffffffffff81111561176757600080fd5b611773878288016115e8565b91505092959194509250565b60008060008060008060008060006101208a8c03121561179e57600080fd5b60008a013567ffffffffffffffff8111156117b857600080fd5b6117c48c828d016115e8565b99505060208a013567ffffffffffffffff8111156117e157600080fd5b6117ed8c828d016115e8565b98505060408a013567ffffffffffffffff81111561180a57600080fd5b6118168c828d016115e8565b97505060606118278c828d01611612565b96505060806118388c828d01611612565b95505060a08a013567ffffffffffffffff81111561185557600080fd5b6118618c828d016115e8565b94505060c08a013567ffffffffffffffff81111561187e57600080fd5b61188a8c828d016115e8565b93505060e08a013567ffffffffffffffff8111156118a757600080fd5b6118b38c828d016115e8565b9250506101008a013567ffffffffffffffff8111156118d157600080fd5b6118dd8c828d016115e8565b9150509295985092959850929598565b6000602082840312156118ff57600080fd5b600061190d84828501611612565b91505092915050565b60006119228383611bb1565b905092915050565b611933816120f8565b82525050565b600061194482612097565b61194e81856120ba565b93508360208202850161196085612072565b8060005b8581101561199c578484038952815161197d8582611916565b9450611988836120ad565b925060208a01995050600181019050611964565b50829750879550505050505092915050565b6119b78161210a565b82525050565b60006119c8826120a2565b6119d281856120cb565b93506119e281856020860161214f565b6119eb816122bb565b840191505092915050565b6000611a01826120a2565b611a0b81856120dc565b9350611a1b81856020860161214f565b611a24816122bb565b840191505092915050565b6000611a3a826120a2565b611a4481856120ed565b9350611a5481856020860161214f565b80840191505092915050565b60008154611a6d81612182565b611a7781866120ed565b94506001821660008114611a925760018114611aa357611ad6565b60ff19831686528186019350611ad6565b611aac85612082565b60005b83811015611ace57815481890152600182019150602081019050611aaf565b838801955050505b50505092915050565b6000611aec600d836120ed565b9150611af7826122cc565b600d82019050919050565b6000611b0f601a836120dc565b9150611b1a826122f5565b602082019050919050565b6000611b32601f836120dc565b9150611b3d8261231e565b602082019050919050565b6000611b556024836120dc565b9150611b6082612347565b604082019050919050565b6000611b78601e836120dc565b9150611b8382612396565b602082019050919050565b6000611b9b6022836120dc565b9150611ba6826123bf565b604082019050919050565b600060a083016000830151611bc96000860182611c3c565b5060208301518482036020860152611be182826119bd565b91505060408301518482036040860152611bfb82826119bd565b91505060608301518482036060860152611c1582826119bd565b91505060808301518482036080860152611c2f82826119bd565b9150508091505092915050565b611c4581612136565b82525050565b611c5481612136565b82525050565b6000611c668284611a2f565b915081905092915050565b6000611c7d8284611a60565b915081905092915050565b6000611c9382611adf565b9150819050919050565b6000606082019050611cb2600083018661192a565b611cbf602083018561192a565b8181036040830152611cd181846119f6565b9050949350505050565b6000608082019050611cf0600083018661192a565b611cfd602083018561192a565b8181036040830152611d0f81846119f6565b90508181036060830152611d2281611b25565b9050949350505050565b6000608082019050611d41600083018661192a565b611d4e602083018561192a565b8181036040830152611d6081846119f6565b90508181036060830152611d7381611b6b565b9050949350505050565b6000606082019050611d92600083018561192a565b8181036020830152611da481846119f6565b90508181036040830152611db781611b48565b90509392505050565b600061010082019050611dd6600083018b61192a565b8181036020830152611de8818a6119f6565b9050611df76040830189611c4b565b611e046060830188611c4b565b8181036080830152611e1681876119f6565b905081810360a0830152611e2a81866119f6565b905081810360c0830152611e3e81856119f6565b905081810360e0830152611e5281846119f6565b90509998505050505050505050565b60006020820190508181036000830152611e7b8184611939565b905092915050565b6000602082019050611e9860008301846119ae565b92915050565b60006080820190508181036000830152611eb881876119f6565b90508181036020830152611ecc81866119f6565b90508181036040830152611ee081856119f6565b90508181036060830152611ef481846119f6565b905095945050505050565b600060e0820190508181036000830152611f19818a6119f6565b90508181036020830152611f2d81896119f6565b90508181036040830152611f4181886119f6565b90508181036060830152611f5581876119f6565b90508181036080830152611f6981866119f6565b905081810360a0830152611f7d81856119f6565b9050611f8c60c08301846119ae565b98975050505050505050565b60006020820190508181036000830152611fb181611b02565b9050919050565b60006020820190508181036000830152611fd181611b8e565b9050919050565b6000602082019050611fed6000830184611c4b565b92915050565b60006040820190506120086000830185611c4b565b6120156020830184611c4b565b9392505050565b6000612026612037565b905061203282826121b4565b919050565b6000604051905090565b600067ffffffffffffffff82111561205c5761205b61228c565b5b612065826122bb565b9050602081019050919050565b6000819050602082019050919050565b60008190508160005260206000209050919050565b600081519050919050565b600081519050919050565b6000602082019050919050565b600082825260208201905092915050565b600082825260208201905092915050565b600082825260208201905092915050565b600081905092915050565b600061210382612116565b9050919050565b60008115159050919050565b600073ffffffffffffffffffffffffffffffffffffffff82169050919050565b6000819050919050565b82818337600083830152505050565b60005b8381101561216d578082015181840152602081019050612152565b8381111561217c576000848401525b50505050565b6000600282049050600182168061219a57607f821691505b602082108114156121ae576121ad61225d565b5b50919050565b6121bd826122bb565b810181811067ffffffffffffffff821117156121dc576121db61228c565b5b80604052505050565b60006121f082612136565b91507fffffffffffffffffffffffffffffffffffffffffffffffffffffffffffffffff8214156122235761222261222e565b5b600182019050919050565b7f4e487b7100000000000000000000000000000000000000000000000000000000600052601160045260246000fd5b7f4e487b7100000000000000000000000000000000000000000000000000000000600052602260045260246000fd5b7f4e487b7100000000000000000000000000000000000000000000000000000000600052604160045260246000fd5b6000601f19601f8301169050919050565b7f31323340676d61696c2e636f6d00000000000000000000000000000000000000600082015250565b7f4469737472696275746f7220616c726561647920657869737473000000000000600082015250565b7f53656e64657220646f6573206e6f74206f776e20746869732061737365742e00600082015250565b7f417373657420776974682074686973205555494420616c72656164792065786960008201527f7374732e00000000000000000000000000000000000000000000000000000000602082015250565b7f4e6f206173736574207769746820746869732055554944206578697374730000600082015250565b7f42616c616e6365206e65656420746f2062652067726561746572207468616e2060008201527f3230000000000000000000000000000000000000000000000000000000000000602082015250565b612417816120f8565b811461242257600080fd5b50565b61242e81612136565b811461243957600080fd5b5056fea2646970667358221220c939be649746fccb7b746c17e6b0b5f6a5099456d23a0fec102ce7584aa1769264736f6c63430008040033",
  "linkReferences": {},
  "deployedLinkReferences": {}
}